{
  "_format": "hh-sol-artifact-1",
  "contractName": "ElonNFT",
  "sourceName": "contracts/Elon.sol",
  "abi": [
    {
      "inputs": [],
      "stateMutability": "nonpayable",
      "type": "constructor"
    },
    {
      "inputs": [
        {
          "internalType": "address",
          "name": "sender",
          "type": "address"
        },
        {
          "internalType": "uint256",
          "name": "tokenId",
          "type": "uint256"
        },
        {
          "internalType": "address",
          "name": "owner",
          "type": "address"
        }
      ],
      "name": "ERC721IncorrectOwner",
      "type": "error"
    },
    {
      "inputs": [
        {
          "internalType": "address",
          "name": "operator",
          "type": "address"
        },
        {
          "internalType": "uint256",
          "name": "tokenId",
          "type": "uint256"
        }
      ],
      "name": "ERC721InsufficientApproval",
      "type": "error"
    },
    {
      "inputs": [
        {
          "internalType": "address",
          "name": "approver",
          "type": "address"
        }
      ],
      "name": "ERC721InvalidApprover",
      "type": "error"
    },
    {
      "inputs": [
        {
          "internalType": "address",
          "name": "operator",
          "type": "address"
        }
      ],
      "name": "ERC721InvalidOperator",
      "type": "error"
    },
    {
      "inputs": [
        {
          "internalType": "address",
          "name": "owner",
          "type": "address"
        }
      ],
      "name": "ERC721InvalidOwner",
      "type": "error"
    },
    {
      "inputs": [
        {
          "internalType": "address",
          "name": "receiver",
          "type": "address"
        }
      ],
      "name": "ERC721InvalidReceiver",
      "type": "error"
    },
    {
      "inputs": [
        {
          "internalType": "address",
          "name": "sender",
          "type": "address"
        }
      ],
      "name": "ERC721InvalidSender",
      "type": "error"
    },
    {
      "inputs": [
        {
          "internalType": "uint256",
          "name": "tokenId",
          "type": "uint256"
        }
      ],
      "name": "ERC721NonexistentToken",
      "type": "error"
    },
    {
      "anonymous": false,
      "inputs": [
        {
          "indexed": true,
          "internalType": "address",
          "name": "owner",
          "type": "address"
        },
        {
          "indexed": true,
          "internalType": "address",
          "name": "approved",
          "type": "address"
        },
        {
          "indexed": true,
          "internalType": "uint256",
          "name": "tokenId",
          "type": "uint256"
        }
      ],
      "name": "Approval",
      "type": "event"
    },
    {
      "anonymous": false,
      "inputs": [
        {
          "indexed": true,
          "internalType": "address",
          "name": "owner",
          "type": "address"
        },
        {
          "indexed": true,
          "internalType": "address",
          "name": "operator",
          "type": "address"
        },
        {
          "indexed": false,
          "internalType": "bool",
          "name": "approved",
          "type": "bool"
        }
      ],
      "name": "ApprovalForAll",
      "type": "event"
    },
    {
      "anonymous": false,
      "inputs": [
        {
          "indexed": false,
          "internalType": "uint256",
          "name": "_fromTokenId",
          "type": "uint256"
        },
        {
          "indexed": false,
          "internalType": "uint256",
          "name": "_toTokenId",
          "type": "uint256"
        }
      ],
      "name": "BatchMetadataUpdate",
      "type": "event"
    },
    {
      "anonymous": false,
      "inputs": [
        {
          "indexed": false,
          "internalType": "uint256",
          "name": "_tokenId",
          "type": "uint256"
        }
      ],
      "name": "MetadataUpdate",
      "type": "event"
    },
    {
      "anonymous": false,
      "inputs": [
        {
          "indexed": true,
          "internalType": "address",
          "name": "from",
          "type": "address"
        },
        {
          "indexed": true,
          "internalType": "address",
          "name": "to",
          "type": "address"
        },
        {
          "indexed": true,
          "internalType": "uint256",
          "name": "tokenId",
          "type": "uint256"
        }
      ],
      "name": "Transfer",
      "type": "event"
    },
    {
      "inputs": [
        {
          "internalType": "address",
          "name": "to",
          "type": "address"
        },
        {
          "internalType": "uint256",
          "name": "tokenId",
          "type": "uint256"
        }
      ],
      "name": "approve",
      "outputs": [],
      "stateMutability": "nonpayable",
      "type": "function"
    },
    {
      "inputs": [
        {
          "internalType": "address",
          "name": "owner",
          "type": "address"
        }
      ],
      "name": "balanceOf",
      "outputs": [
        {
          "internalType": "uint256",
          "name": "",
          "type": "uint256"
        }
      ],
      "stateMutability": "view",
      "type": "function"
    },
    {
      "inputs": [
        {
          "internalType": "uint256",
          "name": "tokenId",
          "type": "uint256"
        }
      ],
      "name": "getApproved",
      "outputs": [
        {
          "internalType": "address",
          "name": "",
          "type": "address"
        }
      ],
      "stateMutability": "view",
      "type": "function"
    },
    {
      "inputs": [
        {
          "internalType": "address",
          "name": "owner",
          "type": "address"
        },
        {
          "internalType": "address",
          "name": "operator",
          "type": "address"
        }
      ],
      "name": "isApprovedForAll",
      "outputs": [
        {
          "internalType": "bool",
          "name": "",
          "type": "bool"
        }
      ],
      "stateMutability": "view",
      "type": "function"
    },
    {
      "inputs": [],
      "name": "mintNFT",
      "outputs": [
        {
          "internalType": "uint256",
          "name": "",
          "type": "uint256"
        }
      ],
      "stateMutability": "nonpayable",
      "type": "function"
    },
    {
      "inputs": [],
      "name": "name",
      "outputs": [
        {
          "internalType": "string",
          "name": "",
          "type": "string"
        }
      ],
      "stateMutability": "view",
      "type": "function"
    },
    {
      "inputs": [
        {
          "internalType": "uint256",
          "name": "tokenId",
          "type": "uint256"
        }
      ],
      "name": "ownerOf",
      "outputs": [
        {
          "internalType": "address",
          "name": "",
          "type": "address"
        }
      ],
      "stateMutability": "view",
      "type": "function"
    },
    {
      "inputs": [
        {
          "internalType": "address",
          "name": "from",
          "type": "address"
        },
        {
          "internalType": "address",
          "name": "to",
          "type": "address"
        },
        {
          "internalType": "uint256",
          "name": "tokenId",
          "type": "uint256"
        }
      ],
      "name": "safeTransferFrom",
      "outputs": [],
      "stateMutability": "nonpayable",
      "type": "function"
    },
    {
      "inputs": [
        {
          "internalType": "address",
          "name": "from",
          "type": "address"
        },
        {
          "internalType": "address",
          "name": "to",
          "type": "address"
        },
        {
          "internalType": "uint256",
          "name": "tokenId",
          "type": "uint256"
        },
        {
          "internalType": "bytes",
          "name": "data",
          "type": "bytes"
        }
      ],
      "name": "safeTransferFrom",
      "outputs": [],
      "stateMutability": "nonpayable",
      "type": "function"
    },
    {
      "inputs": [
        {
          "internalType": "address",
          "name": "operator",
          "type": "address"
        },
        {
          "internalType": "bool",
          "name": "approved",
          "type": "bool"
        }
      ],
      "name": "setApprovalForAll",
      "outputs": [],
      "stateMutability": "nonpayable",
      "type": "function"
    },
    {
      "inputs": [
        {
          "internalType": "bytes4",
          "name": "interfaceId",
          "type": "bytes4"
        }
      ],
      "name": "supportsInterface",
      "outputs": [
        {
          "internalType": "bool",
          "name": "",
          "type": "bool"
        }
      ],
      "stateMutability": "view",
      "type": "function"
    },
    {
      "inputs": [],
      "name": "symbol",
      "outputs": [
        {
          "internalType": "string",
          "name": "",
          "type": "string"
        }
      ],
      "stateMutability": "view",
      "type": "function"
    },
    {
      "inputs": [
        {
          "internalType": "uint256",
          "name": "tokenId",
          "type": "uint256"
        }
      ],
      "name": "tokenURI",
      "outputs": [
        {
          "internalType": "string",
          "name": "",
          "type": "string"
        }
      ],
      "stateMutability": "view",
      "type": "function"
    },
    {
      "inputs": [
        {
          "internalType": "address",
          "name": "from",
          "type": "address"
        },
        {
          "internalType": "address",
          "name": "to",
          "type": "address"
        },
        {
          "internalType": "uint256",
          "name": "tokenId",
          "type": "uint256"
        }
      ],
      "name": "transferFrom",
      "outputs": [],
      "stateMutability": "nonpayable",
      "type": "function"
    }
  ],
  "bytecode": "0x60806040523480156200001157600080fd5b506040518060400160405280600881526020017f456c6f6e4d75736b0000000000000000000000000000000000000000000000008152506040518060400160405280600481526020017f454c4f4e0000000000000000000000000000000000000000000000000000000081525081600090816200008f919062000324565b508060019081620000a1919062000324565b5050506200040b565b600081519050919050565b7f4e487b7100000000000000000000000000000000000000000000000000000000600052604160045260246000fd5b7f4e487b7100000000000000000000000000000000000000000000000000000000600052602260045260246000fd5b600060028204905060018216806200012c57607f821691505b602082108103620001425762000141620000e4565b5b50919050565b60008190508160005260206000209050919050565b60006020601f8301049050919050565b600082821b905092915050565b600060088302620001ac7fffffffffffffffffffffffffffffffffffffffffffffffffffffffffffffffff826200016d565b620001b886836200016d565b95508019841693508086168417925050509392505050565b6000819050919050565b6000819050919050565b600062000205620001ff620001f984620001d0565b620001da565b620001d0565b9050919050565b6000819050919050565b6200022183620001e4565b6200023962000230826200020c565b8484546200017a565b825550505050565b600090565b6200025062000241565b6200025d81848462000216565b505050565b5b8181101562000285576200027960008262000246565b60018101905062000263565b5050565b601f821115620002d4576200029e8162000148565b620002a9846200015d565b81016020851015620002b9578190505b620002d1620002c8856200015d565b83018262000262565b50505b505050565b600082821c905092915050565b6000620002f960001984600802620002d9565b1980831691505092915050565b6000620003148383620002e6565b9150826002028217905092915050565b6200032f82620000aa565b67ffffffffffffffff8111156200034b576200034a620000b5565b5b62000357825462000113565b6200036482828562000289565b600060209050601f8311600181146200039c576000841562000387578287015190505b62000393858262000306565b86555062000403565b601f198416620003ac8662000148565b60005b82811015620003d657848901518255600182019150602085019450602081019050620003af565b86831015620003f65784890151620003f2601f891682620002e6565b8355505b6001600288020188555050505b505050505050565b6124a9806200041b6000396000f3fe608060405234801561001057600080fd5b50600436106100ea5760003560e01c80636352211e1161008c578063a22cb46511610066578063a22cb4651461025d578063b88d4fde14610279578063c87b56dd14610295578063e985e9c5146102c5576100ea565b80636352211e146101df57806370a082311461020f57806395d89b411461023f576100ea565b8063095ea7b3116100c8578063095ea7b31461016d57806314f710fe1461018957806323b872dd146101a757806342842e0e146101c3576100ea565b806301ffc9a7146100ef57806306fdde031461011f578063081812fc1461013d575b600080fd5b61010960048036038101906101049190611954565b6102f5565b604051610116919061199c565b60405180910390f35b610127610356565b6040516101349190611a47565b60405180910390f35b61015760048036038101906101529190611a9f565b6103e8565b6040516101649190611b0d565b60405180910390f35b61018760048036038101906101829190611b54565b610404565b005b61019161041a565b60405161019e9190611ba3565b60405180910390f35b6101c160048036038101906101bc9190611bbe565b61048a565b005b6101dd60048036038101906101d89190611bbe565b61058c565b005b6101f960048036038101906101f49190611a9f565b6105ac565b6040516102069190611b0d565b60405180910390f35b61022960048036038101906102249190611c11565b6105be565b6040516102369190611ba3565b60405180910390f35b610247610678565b6040516102549190611a47565b60405180910390f35b61027760048036038101906102729190611c6a565b61070a565b005b610293600480360381019061028e9190611ddf565b610720565b005b6102af60048036038101906102aa9190611a9f565b61073d565b6040516102bc9190611a47565b60405180910390f35b6102df60048036038101906102da9190611e62565b610850565b6040516102ec919061199c565b60405180910390f35b6000634906490660e01b7bffffffffffffffffffffffffffffffffffffffffffffffffffffffff1916827bffffffffffffffffffffffffffffffffffffffffffffffffffffffff1916148061034f575061034e826108e4565b5b9050919050565b60606000805461036590611ed1565b80601f016020809104026020016040519081016040528092919081815260200182805461039190611ed1565b80156103de5780601f106103b3576101008083540402835291602001916103de565b820191906000526020600020905b8154815290600101906020018083116103c157829003601f168201915b5050505050905090565b60006103f3826109c6565b506103fd82610a4e565b9050919050565b6104168282610411610a8b565b610a93565b5050565b60006104266007610aa5565b60006104326007610ac4565b905061043e3382610ad2565b610460816040518060600160405280602e8152602001612446602e9139610bcb565b610483604051806060016040528060238152602001612423602391398233610c27565b8091505090565b600073ffffffffffffffffffffffffffffffffffffffff168273ffffffffffffffffffffffffffffffffffffffff16036104fc5760006040517f64a0ae920000000000000000000000000000000000000000000000000000000081526004016104f39190611b0d565b60405180910390fd5b6000610510838361050b610a8b565b610cc6565b90508373ffffffffffffffffffffffffffffffffffffffff168173ffffffffffffffffffffffffffffffffffffffff1614610586578382826040517f64283d7b00000000000000000000000000000000000000000000000000000000815260040161057d93929190611f02565b60405180910390fd5b50505050565b6105a783838360405180602001604052806000815250610720565b505050565b60006105b7826109c6565b9050919050565b60008073ffffffffffffffffffffffffffffffffffffffff168273ffffffffffffffffffffffffffffffffffffffff16036106315760006040517f89c62b640000000000000000000000000000000000000000000000000000000081526004016106289190611b0d565b60405180910390fd5b600360008373ffffffffffffffffffffffffffffffffffffffff1673ffffffffffffffffffffffffffffffffffffffff168152602001908152602001600020549050919050565b60606001805461068790611ed1565b80601f01602080910402602001604051908101604052809291908181526020018280546106b390611ed1565b80156107005780601f106106d557610100808354040283529160200191610700565b820191906000526020600020905b8154815290600101906020018083116106e357829003601f168201915b5050505050905090565b61071c610715610a8b565b8383610ee0565b5050565b61072b84848461048a565b6107378484848461104f565b50505050565b6060610748826109c6565b50600060066000848152602001908152602001600020805461076990611ed1565b80601f016020809104026020016040519081016040528092919081815260200182805461079590611ed1565b80156107e25780601f106107b7576101008083540402835291602001916107e2565b820191906000526020600020905b8154815290600101906020018083116107c557829003601f168201915b5050505050905060006107f3611206565b9050600081510361080857819250505061084b565b60008251111561083d578082604051602001610825929190611f75565b6040516020818303038152906040529250505061084b565b6108468461121d565b925050505b919050565b6000600560008473ffffffffffffffffffffffffffffffffffffffff1673ffffffffffffffffffffffffffffffffffffffff16815260200190815260200160002060008373ffffffffffffffffffffffffffffffffffffffff1673ffffffffffffffffffffffffffffffffffffffff16815260200190815260200160002060009054906101000a900460ff16905092915050565b60007f80ac58cd000000000000000000000000000000000000000000000000000000007bffffffffffffffffffffffffffffffffffffffffffffffffffffffff1916827bffffffffffffffffffffffffffffffffffffffffffffffffffffffff191614806109af57507f5b5e139f000000000000000000000000000000000000000000000000000000007bffffffffffffffffffffffffffffffffffffffffffffffffffffffff1916827bffffffffffffffffffffffffffffffffffffffffffffffffffffffff1916145b806109bf57506109be82611286565b5b9050919050565b6000806109d2836112f0565b9050600073ffffffffffffffffffffffffffffffffffffffff168173ffffffffffffffffffffffffffffffffffffffff1603610a4557826040517f7e273289000000000000000000000000000000000000000000000000000000008152600401610a3c9190611ba3565b60405180910390fd5b80915050919050565b60006004600083815260200190815260200160002060009054906101000a900473ffffffffffffffffffffffffffffffffffffffff169050919050565b600033905090565b610aa0838383600161132d565b505050565b6001816000016000828254610aba9190611fc8565b9250508190555050565b600081600001549050919050565b600073ffffffffffffffffffffffffffffffffffffffff168273ffffffffffffffffffffffffffffffffffffffff1603610b445760006040517f64a0ae92000000000000000000000000000000000000000000000000000000008152600401610b3b9190611b0d565b60405180910390fd5b6000610b5283836000610cc6565b9050600073ffffffffffffffffffffffffffffffffffffffff168173ffffffffffffffffffffffffffffffffffffffff1614610bc65760006040517f73c6ac6e000000000000000000000000000000000000000000000000000000008152600401610bbd9190611b0d565b60405180910390fd5b505050565b80600660008481526020019081526020016000209081610beb91906121a8565b507ff8e1a15aba9398e019f0b49df1a4fde98ee17ae345cb5f6b5e2c27f5033e8ce782604051610c1b9190611ba3565b60405180910390a15050565b610cc1838383604051602401610c3f9392919061227a565b6040516020818303038152906040527f1c7ec448000000000000000000000000000000000000000000000000000000007bffffffffffffffffffffffffffffffffffffffffffffffffffffffff19166020820180517bffffffffffffffffffffffffffffffffffffffffffffffffffffffff83818316178352505050506114f2565b505050565b600080610cd2846112f0565b9050600073ffffffffffffffffffffffffffffffffffffffff168373ffffffffffffffffffffffffffffffffffffffff1614610d1457610d1381848661150c565b5b600073ffffffffffffffffffffffffffffffffffffffff168173ffffffffffffffffffffffffffffffffffffffff1614610da557610d5660008560008061132d565b6001600360008373ffffffffffffffffffffffffffffffffffffffff1673ffffffffffffffffffffffffffffffffffffffff168152602001908152602001600020600082825403925050819055505b600073ffffffffffffffffffffffffffffffffffffffff168573ffffffffffffffffffffffffffffffffffffffff1614610e28576001600360008773ffffffffffffffffffffffffffffffffffffffff1673ffffffffffffffffffffffffffffffffffffffff168152602001908152602001600020600082825401925050819055505b846002600086815260200190815260200160002060006101000a81548173ffffffffffffffffffffffffffffffffffffffff021916908373ffffffffffffffffffffffffffffffffffffffff160217905550838573ffffffffffffffffffffffffffffffffffffffff168273ffffffffffffffffffffffffffffffffffffffff167fddf252ad1be2c89b69c2b068fc378daa952ba7f163c4a11628f55a4df523b3ef60405160405180910390a4809150509392505050565b600073ffffffffffffffffffffffffffffffffffffffff168273ffffffffffffffffffffffffffffffffffffffff1603610f5157816040517f5b08ba18000000000000000000000000000000000000000000000000000000008152600401610f489190611b0d565b60405180910390fd5b80600560008573ffffffffffffffffffffffffffffffffffffffff1673ffffffffffffffffffffffffffffffffffffffff16815260200190815260200160002060008473ffffffffffffffffffffffffffffffffffffffff1673ffffffffffffffffffffffffffffffffffffffff16815260200190815260200160002060006101000a81548160ff0219169083151502179055508173ffffffffffffffffffffffffffffffffffffffff168373ffffffffffffffffffffffffffffffffffffffff167f17307eab39ab6107e8899845ad3d59bd9653f200f220920489ca2b5937696c3183604051611042919061199c565b60405180910390a3505050565b60008373ffffffffffffffffffffffffffffffffffffffff163b1115611200578273ffffffffffffffffffffffffffffffffffffffff1663150b7a02611093610a8b565b8685856040518563ffffffff1660e01b81526004016110b5949392919061230d565b6020604051808303816000875af19250505080156110f157506040513d601f19601f820116820180604052508101906110ee919061236e565b60015b611175573d8060008114611121576040519150601f19603f3d011682016040523d82523d6000602084013e611126565b606091505b50600081510361116d57836040517f64a0ae920000000000000000000000000000000000000000000000000000000081526004016111649190611b0d565b60405180910390fd5b805181602001fd5b63150b7a0260e01b7bffffffffffffffffffffffffffffffffffffffffffffffffffffffff1916817bffffffffffffffffffffffffffffffffffffffffffffffffffffffff1916146111fe57836040517f64a0ae920000000000000000000000000000000000000000000000000000000081526004016111f59190611b0d565b60405180910390fd5b505b50505050565b606060405180602001604052806000815250905090565b6060611228826109c6565b506000611233611206565b90506000815111611253576040518060200160405280600081525061127e565b8061125d846115d0565b60405160200161126e929190611f75565b6040516020818303038152906040525b915050919050565b60007f01ffc9a7000000000000000000000000000000000000000000000000000000007bffffffffffffffffffffffffffffffffffffffffffffffffffffffff1916827bffffffffffffffffffffffffffffffffffffffffffffffffffffffff1916149050919050565b60006002600083815260200190815260200160002060009054906101000a900473ffffffffffffffffffffffffffffffffffffffff169050919050565b80806113665750600073ffffffffffffffffffffffffffffffffffffffff168273ffffffffffffffffffffffffffffffffffffffff1614155b1561149a576000611376846109c6565b9050600073ffffffffffffffffffffffffffffffffffffffff168373ffffffffffffffffffffffffffffffffffffffff16141580156113e157508273ffffffffffffffffffffffffffffffffffffffff168173ffffffffffffffffffffffffffffffffffffffff1614155b80156113f457506113f28184610850565b155b1561143657826040517fa9fbf51f00000000000000000000000000000000000000000000000000000000815260040161142d9190611b0d565b60405180910390fd5b811561149857838573ffffffffffffffffffffffffffffffffffffffff168273ffffffffffffffffffffffffffffffffffffffff167f8c5be1e5ebec7d5bd14f71427d1e84f3dd0314c0f7b2291e5b200ac8c7c3b92560405160405180910390a45b505b836004600085815260200190815260200160002060006101000a81548173ffffffffffffffffffffffffffffffffffffffff021916908373ffffffffffffffffffffffffffffffffffffffff16021790555050505050565b6115098161150161169e6116bf565b63ffffffff16565b50565b6115178383836116ca565b6115cb57600073ffffffffffffffffffffffffffffffffffffffff168373ffffffffffffffffffffffffffffffffffffffff160361158c57806040517f7e2732890000000000000000000000000000000000000000000000000000000081526004016115839190611ba3565b60405180910390fd5b81816040517f177e802f0000000000000000000000000000000000000000000000000000000081526004016115c292919061239b565b60405180910390fd5b505050565b6060600060016115df8461178b565b01905060008167ffffffffffffffff8111156115fe576115fd611cb4565b5b6040519080825280601f01601f1916602001820160405280156116305781602001600182028036833780820191505090505b509050600082602001820190505b600115611693578080600190039150507f3031323334353637383961626364656600000000000000000000000000000000600a86061a8153600a8581611687576116866123c4565b5b0494506000850361163e575b819350505050919050565b60006a636f6e736f6c652e6c6f679050600080835160208501845afa505050565b6118de819050919050565b60008073ffffffffffffffffffffffffffffffffffffffff168373ffffffffffffffffffffffffffffffffffffffff161415801561178257508273ffffffffffffffffffffffffffffffffffffffff168473ffffffffffffffffffffffffffffffffffffffff16148061174357506117428484610850565b5b8061178157508273ffffffffffffffffffffffffffffffffffffffff1661176983610a4e565b73ffffffffffffffffffffffffffffffffffffffff16145b5b90509392505050565b600080600090507a184f03e93ff9f4daa797ed6e38ed64bf6a1f01000000000000000083106117e9577a184f03e93ff9f4daa797ed6e38ed64bf6a1f01000000000000000083816117df576117de6123c4565b5b0492506040810190505b6d04ee2d6d415b85acef81000000008310611826576d04ee2d6d415b85acef8100000000838161181c5761181b6123c4565b5b0492506020810190505b662386f26fc10000831061185557662386f26fc10000838161184b5761184a6123c4565b5b0492506010810190505b6305f5e100831061187e576305f5e1008381611874576118736123c4565b5b0492506008810190505b61271083106118a3576127108381611899576118986123c4565b5b0492506004810190505b606483106118c657606483816118bc576118bb6123c4565b5b0492506002810190505b600a83106118d5576001810190505b80915050919050565b6118e66123f3565b565b6000604051905090565b600080fd5b600080fd5b60007fffffffff0000000000000000000000000000000000000000000000000000000082169050919050565b611931816118fc565b811461193c57600080fd5b50565b60008135905061194e81611928565b92915050565b60006020828403121561196a576119696118f2565b5b60006119788482850161193f565b91505092915050565b60008115159050919050565b61199681611981565b82525050565b60006020820190506119b1600083018461198d565b92915050565b600081519050919050565b600082825260208201905092915050565b60005b838110156119f15780820151818401526020810190506119d6565b60008484015250505050565b6000601f19601f8301169050919050565b6000611a19826119b7565b611a2381856119c2565b9350611a338185602086016119d3565b611a3c816119fd565b840191505092915050565b60006020820190508181036000830152611a618184611a0e565b905092915050565b6000819050919050565b611a7c81611a69565b8114611a8757600080fd5b50565b600081359050611a9981611a73565b92915050565b600060208284031215611ab557611ab46118f2565b5b6000611ac384828501611a8a565b91505092915050565b600073ffffffffffffffffffffffffffffffffffffffff82169050919050565b6000611af782611acc565b9050919050565b611b0781611aec565b82525050565b6000602082019050611b226000830184611afe565b92915050565b611b3181611aec565b8114611b3c57600080fd5b50565b600081359050611b4e81611b28565b92915050565b60008060408385031215611b6b57611b6a6118f2565b5b6000611b7985828601611b3f565b9250506020611b8a85828601611a8a565b9150509250929050565b611b9d81611a69565b82525050565b6000602082019050611bb86000830184611b94565b92915050565b600080600060608486031215611bd757611bd66118f2565b5b6000611be586828701611b3f565b9350506020611bf686828701611b3f565b9250506040611c0786828701611a8a565b9150509250925092565b600060208284031215611c2757611c266118f2565b5b6000611c3584828501611b3f565b91505092915050565b611c4781611981565b8114611c5257600080fd5b50565b600081359050611c6481611c3e565b92915050565b60008060408385031215611c8157611c806118f2565b5b6000611c8f85828601611b3f565b9250506020611ca085828601611c55565b9150509250929050565b600080fd5b600080fd5b7f4e487b7100000000000000000000000000000000000000000000000000000000600052604160045260246000fd5b611cec826119fd565b810181811067ffffffffffffffff82111715611d0b57611d0a611cb4565b5b80604052505050565b6000611d1e6118e8565b9050611d2a8282611ce3565b919050565b600067ffffffffffffffff821115611d4a57611d49611cb4565b5b611d53826119fd565b9050602081019050919050565b82818337600083830152505050565b6000611d82611d7d84611d2f565b611d14565b905082815260208101848484011115611d9e57611d9d611caf565b5b611da9848285611d60565b509392505050565b600082601f830112611dc657611dc5611caa565b5b8135611dd6848260208601611d6f565b91505092915050565b60008060008060808587031215611df957611df86118f2565b5b6000611e0787828801611b3f565b9450506020611e1887828801611b3f565b9350506040611e2987828801611a8a565b925050606085013567ffffffffffffffff811115611e4a57611e496118f7565b5b611e5687828801611db1565b91505092959194509250565b60008060408385031215611e7957611e786118f2565b5b6000611e8785828601611b3f565b9250506020611e9885828601611b3f565b9150509250929050565b7f4e487b7100000000000000000000000000000000000000000000000000000000600052602260045260246000fd5b60006002820490506001821680611ee957607f821691505b602082108103611efc57611efb611ea2565b5b50919050565b6000606082019050611f176000830186611afe565b611f246020830185611b94565b611f316040830184611afe565b949350505050565b600081905092915050565b6000611f4f826119b7565b611f598185611f39565b9350611f698185602086016119d3565b80840191505092915050565b6000611f818285611f44565b9150611f8d8284611f44565b91508190509392505050565b7f4e487b7100000000000000000000000000000000000000000000000000000000600052601160045260246000fd5b6000611fd382611a69565b9150611fde83611a69565b9250828201905080821115611ff657611ff5611f99565b5b92915050565b60008190508160005260206000209050919050565b60006020601f8301049050919050565b600082821b905092915050565b60006008830261205e7fffffffffffffffffffffffffffffffffffffffffffffffffffffffffffffffff82612021565b6120688683612021565b95508019841693508086168417925050509392505050565b6000819050919050565b60006120a56120a061209b84611a69565b612080565b611a69565b9050919050565b6000819050919050565b6120bf8361208a565b6120d36120cb826120ac565b84845461202e565b825550505050565b600090565b6120e86120db565b6120f38184846120b6565b505050565b5b818110156121175761210c6000826120e0565b6001810190506120f9565b5050565b601f82111561215c5761212d81611ffc565b61213684612011565b81016020851015612145578190505b61215961215185612011565b8301826120f8565b50505b505050565b600082821c905092915050565b600061217f60001984600802612161565b1980831691505092915050565b6000612198838361216e565b9150826002028217905092915050565b6121b1826119b7565b67ffffffffffffffff8111156121ca576121c9611cb4565b5b6121d48254611ed1565b6121df82828561211b565b600060209050601f8311600181146122125760008415612200578287015190505b61220a858261218c565b865550612272565b601f19841661222086611ffc565b60005b8281101561224857848901518255600182019150602085019450602081019050612223565b868310156122655784890151612261601f89168261216e565b8355505b6001600288020188555050505b505050505050565b600060608201905081810360008301526122948186611a0e565b90506122a36020830185611b94565b6122b06040830184611afe565b949350505050565b600081519050919050565b600082825260208201905092915050565b60006122df826122b8565b6122e981856122c3565b93506122f98185602086016119d3565b612302816119fd565b840191505092915050565b60006080820190506123226000830187611afe565b61232f6020830186611afe565b61233c6040830185611b94565b818103606083015261234e81846122d4565b905095945050505050565b60008151905061236881611928565b92915050565b600060208284031215612384576123836118f2565b5b600061239284828501612359565b91505092915050565b60006040820190506123b06000830185611afe565b6123bd6020830184611b94565b9392505050565b7f4e487b7100000000000000000000000000000000000000000000000000000000600052601260045260246000fd5b7f4e487b7100000000000000000000000000000000000000000000000000000000600052605160045260246000fdfe546865204e465420494420257320686173206265656e206d696e74656420746f202573516d563166714a5132376e53537455333963505757735a714669486d63313262336a426b72317546415134464e43a26469706673582212201f7203c72b925321ffba9217422e85f49695b4b71fda942ed47f81f0f012435964736f6c63430008140033",
  "linkReferences": {},
  "deployedLinkReferences": {}
}